:020000040000FA
:10000000401A0010D9000000E1000000E3000000E9
:10001000E5000000E7000000E9000000000000002B
:10002000000000000000000000000000EB000000E5
:10003000ED0000000000000063010000F118000066
:10004000F3000000F3000000F3000000F3000000E4
:10005000F3000000F3000000F3000000F3000000D4
:10006000F3000000F3000000F3000000F3000000C4
:10007000F3000000F3000000F3000000F3000000B4
:10008000F3000000F3000000F3000000F3000000A4
:10009000F3000000F3000000F3000000F300000094
:1000A000F3000000F3000000F3000000F300000084
:1000B000F3000000F3000000F3000000F300000074
:1000C000F3000000DFF80CD000F018F800480047FB
:1000D000451B0000401A00100648804706480047AC
:1000E000FEE7FEE7FEE7FEE7FEE7FEE7FEE7FEE7E8
:1000F000FEE7FEE719190000C5000000064C074D99
:1001000006E0E06840F0010394E8070098471034E7
:10011000AC42F6D3FFF7DAFF141D0000341D0000D7
:10012000EFF3108072B6704780F3108870471D4857
:100130004FF0FF010170002080F309881A48012167
:1001400001701A484FF08051016062B6FEE717480F
:100150004FF080510160704714484FF080510160AA
:10016000704772B6EFF3098028B1203880E8F00FAD
:100170000F49096808600F480F490A7802700C4857
:100180000E490A680260106890E8F00F203080F392
:1001900009884EF0040E62B670474FF0010080F3FC
:1001A0001088704722ED00E02E00001004ED00E002
:1001B0003400001023000010240000103C00001048
:1001C0007047704770477047704700000A480068E2
:1001D0004FF47A71B0FBF1F4204600F08BFF00F091
:1001E000AFFAFFF7EEFF00BF00231A4601211846C1
:1001F00000F072FDF8E70000000000107047704743
:100200002DE9F04105460E46144600271DB904208D
:100210002070BDE8F08116B90C202070F9E7114874
:10022000007810B112202070F3E72878012808D058
:10023000022807D0032802D0042804D100E000BF20
:1002400000BF00BF02E001202070E2E700BFFFF71F
:1002500067FF07466E613846FFF766FF0020207093
:1002600000BFD6E72100001010B500F019F801F02A
:100270008FF801F0B7F801F0D7F801F059F801F064
:1002800019F801F067F901F091F901F00DF901F0A9
:1002900031F900F0F7FD00F009F800F031F810BD79
:1002A00000200149088070470400001070470000DA
:1002B00010B500240B480078012811D1FFF730FF5A
:1002C00004460948007840B908480078FF2804D25D
:1002D00006480078401C054908702046FFF724FFB7
:1002E00010BD00002E0000102100001022000010A0
:1002F00010B504462046FFF763FF10BDFFFFFFFF68
:100300001D481E481E481F481F48204820482148B5
:100310002148224822482348234824482448254885
:100320002548264826482748274828482848294855
:1003300029482A482A482B482B482C482C482D4825
:100340002D482E482E482F482F48304830483148F5
:1003500031483248324833483348344834483548C5
:100360003548364836483748374838483848394895
:10037000394800BF70470000A01B0000A41B00000C
:10038000AA1B0000AC1B0000A81B0000AE1B000055
:10039000B01B0000B21B0000B41B0000B61B000025
:1003A000B81B0000BA1B0000BC1B0000BE1B0000F5
:1003B000C01B0000C21B0000C41B0000C61B0000C5
:1003C000C81B0000CA1B0000CC1B0000CE1B000095
:1003D000D01B0000D21B0000D41B0000D61B000065
:1003E000D81B0000DA1B0000DC1B0000DE1B000035
:1003F000E01B0000E21B0000E41B0000E61B000005
:10040000E81B0000EA1B0000EC1B0000EE1B0000D4
:10041000F01B0000F21B0000F61B0000F81B0000A0
:10042000FA1B0000FC1B0000800E001000120010E0
:10043000001C0000021C0000041C0000061C000040
:10044000081C00000A1C00000C1C00000E1C000010
:10045000101C0000FE1B0000121C000010B5002440
:100460001A480078012830D1FFF75AFE0446184890
:10047000007820B116480078401E154908701448CD
:100480000078F8B913480078E0B901F0F1F81248A3
:100490001249097850F82100114908600F48007886
:1004A0001049097888420DD00D480068C06B401C87
:1004B0000B490968C8630C480068401C0A49086079
:1004C000FFF74AFE2046FFF72FFE10BD2E0000105A
:1004D0002100001022000010180500102400001058
:1004E0003C000010230000100800001010B500248C
:1004F00013480078012821D1FFF712FE0446114865
:100500000078C0B10F480078401E0E4908700846B8
:10051000007860B90C48007828B92046FFF704FE3F
:1005200001F06CF80AE02046FFF7FEFD06E02046E9
:10053000FFF7FAFD02E02046FFF7F6FD10BD0000D0
:100540002E000010220000102100001070B505469A
:1005500000261048007808B1002070BDFFF7E0FDCC
:1005600006460D480468006820B10B4800684068E2
:10057000094908603046FFF7D7FD4CB103202070D1
:1005800025810020606005A06061204600F084FEA7
:100590002046E2E7210000100C0000103F000000A0
:1005A0002DE9F04105460E46144600271DB90420EA
:1005B0002070BDE8F0812878032802D00120207047
:1005C000F7E73248007810B102202070F1E7304898
:1005D000007810B10D202070EBE7FFF7A1FD074672
:1005E000288940B12889401E28813846FFF79CFDA4
:1005F00000202070DDE72748006890F8340040F0C4
:1006000001002449096881F8340000202149096863
:1006100081F835001F4800680663284600F0FEFD9B
:100620003846FFF781FD00F0E9FFFFF779FD074647
:100630001848006890F8350020B1012809D0022838
:1006400006D102E0002020700BE00E20207008E0B0
:1006500000BF29460F48006800F0AEFD0A20207058
:1006600000BF00BF00200B49096881F83400094928
:10067000096881F8350007490968C86105490968B2
:1006800008623846FFF750FD00BF92E721000010D6
:10069000220000103400001070B5044600250CB98B
:1006A000042070BD2078032801D00120F9E7FFF76E
:1006B00037FD0546A07A60B1002301221946204685
:1006C00000F032FD2846FFF72FFD00F097FF0020D5
:1006D000E7E720894FF6FF71884207D22089401C46
:1006E00020812846FFF720FD0020DAE72846FFF7A3
:1006F0001BFD3320D5E7000010B50B48007890B9FA
:1007000000F0B6FF09480078094908700948074910
:10071000097850F821000849086008460068074930
:100720000860FFF704FD10BD2E000010240000102B
:1007300023000010180500103C00001034000010C9
:1007400010B50024022000F08BFAFFF7E9FC044604
:1007500000200B4908602046FFF7E6FC642000F00B
:100760007FFAFFF7DDFC044605480068054908608C
:100770000120054908702046FFF7D6FC10BD000097
:100780003000001018000010200000102DE9F04F7C
:1007900085B081468A4693461C46DDE90F78129D56
:1007A000002003903F2C03D92A2005B0BDE8F08F2C
:1007B000FFF7B6FC03902248007820B10398FFF7BA
:1007C000B3FC3C20F1E71F4850F8240088BB01200F
:1007D0001C4941F824000398FFF7A6FC2A4641462D
:1007E000384601F077F82B465A465146484600F005
:1007F0008BF904901198CDE9008002953A46204685
:100800000E9B049900F04AFF064636B90E48007860
:1008100001280CD100F0F2FE09E0FFF781FC039003
:100820000020084941F824000398FFF77DFC30467A
:10083000BBE7FFE70398FFF777FC2820B5E7000048
:1008400021000010180500102E00001010B50446FD
:100850002046FFF7B7FC10BD2DE9F0410546002703
:100860004D48007810B14020BDE8F0813F2D01D106
:100870003E20F9E73F2D03D3FF2D01D02A20F3E7D7
:10088000FFF74EFC0746FF2D03D14448006890F85F
:100890003650434850F8254024B93846FFF744FC09
:1008A0004320E1E7012C04D13846FFF73DFC3D2011
:1008B000DAE714F8380F3B49085C617888432178FF
:1008C000384A505414F838091146085C30B994F885
:1008D0003A1035480078884333490870E06918B108
:1008E0002046E16900F068FC206A18B12046216AC0
:1008F00000F077FCA66A16B1304600F007FD002034
:10090000206384F8340084F8350028480078FF28F4
:1009100004D226480078401C244908703846FFF766
:1009200003FC00F0FFFBFFF7FBFB07461F480078C6
:1009300020B11E480078401E1C490870204600F077
:1009400041F81B480078401E1949087000201449DE
:1009500041F82500A06930B9002061698861154916
:100960006069086005E0D4E905014861D4E9051033
:1009700088611148006860610F4804600FA020651D
:100980003846FFF7D1FB0E480078012801D100F06E
:1009900035FE002068E70000210000103400001040
:1009A000180500102600001025000010220000107D
:1009B0002F00001040000010380000103F00000021
:1009C0002E00001010B504462046FFF7FCFB10BDBA
:1009D00010B5FFF7F9FB10BD2DE9F04105460F46B4
:1009E00014464FF000083F2D05D9FF2D03D02A20D3
:1009F0002070BDE8F08117B90C202070F9E7144889
:100A0000007810B112202070F3E7FFF789FB8046D1
:100A1000FF2D03D10F48006890F836500E4850F86B
:100A200025602EB94046FFF77FFB43202070E0E7AA
:100A3000012E05D14046FFF777FB43202070D8E711
:100A400037654046FFF770FB0020207000BFD0E7FD
:100A5000210000103400001018050010704710B578
:100A6000FFF7CCFB10BD00002DE9F04706460C4611
:100A70004FF0000A3F2E04D9FF2E02D02A20BDE8F5
:100A8000F0870CB90920FAE7002020606060FFF7CA
:100A900047FB8246FF2E03D11948006890F8366064
:100AA000184850F8265025B95046FFF73DFB432023
:100AB000E5E7012D04D15046FFF736FB4320DEE782
:100AC000287C00F0010020B95046FFF72DFB45209F
:100AD000D5E70027D5F80C90D5F808805046FFF7E9
:100AE00023FB00E07F1C58F8041B0029FAD0B80053
:100AF0002060A9EB0700800060600020BFE70000D5
:100B0000340000101805001070B5044610464FF070
:100B100080750560051F28462C60214E051F28465C
:100B20002E604FF01236051F28462E604FF0033618
:100B3000051F28462E604FF00236051F28462E60FE
:100B40007610051F28462E60051F284629604FF0A5
:100B50001136051F28462E604FF01036051F284617
:100B60002E604FF00936051F28462E604FF00836DC
:100B7000051F28462E604FF00736051F28462E60B9
:100B80004FF00636051F28462E604FF00536051F2C
:100B900028462E604FF00436051F28462E6070BD93
:100BA000F91700002DE9F04105464FF000083F2DF0
:100BB00002D14720BDE8F0813F2D03D3FF2D01D0A6
:100BC0002A20F7E7FFF7ACFA8046FF2D05D1204831
:100BD000006890F83650012608E01D48006890F83B
:100BE0003600A84201D1012600E00026194850F83D
:100BF000254024B94046FFF797FA4820DAE7012C50
:100C000004D14046FFF790FA4320D3E794F83870B8
:100C10001148C05D94F8391088430F49C8550846FB
:100C2000C05D30B994F83A100C48007888430B49FD
:100C3000087094F8340040F0080084F8340040460E
:100C4000FFF772FA012E01D100F0D8FC0020B1E7C5
:100C500034000010180500102600001025000010B8
:100C600070B5054600261748007800B170BD1648DB
:100C7000007800B1FAE71DB3FFF752FA06461348B1
:100C8000006890F838401248005D1049096891F8F2
:100C9000391088430E4908550846005D40B90B4895
:100CA000006890F83A100B480078884309490870AA
:100CB0000648006805633046FFF736FA00F09EFCF0
:100CC00000BFD3E721000010220000103400001004
:100CD00026000010250000102DE9F04107460D46C2
:100CE00016461C461B48007810B15520BDE8F0811F
:100CF0001948007808B13220F8E727B91DB916B9AC
:100D00000CB95420F2E73B2D01D95120EEE73B2EE0
:100D100001D95220EAE7B4F57A7F01D35320E5E701
:100D20004FF47A7060434FF47A71B0FBF1F14FF4F5
:100D300061607843C5EB051200EB8200304400EBA4
:100D40004002C2EBC01001EBC0084046FFF788FF2D
:100D50000020CBE7210000102200001070B5002613
:100D600000F072F8FFF7DCF9064631480068401CD5
:100D70002F4908603046FFF7D7F92E480078012840
:100D800053D12D48007820B1012804D0022809D180
:100D900003E001250BE0002509E00125012026499B
:100DA000087004E0012500202349087000BF00BF3F
:100DB00005B970BD2148046833E0FFF7B1F9064674
:100DC000206B50B3206B401E2063206B28BB94F82F
:100DD000340000F0370040B114F8340F00F0C800C0
:100DE000207001206070343C02E0002084F835005F
:100DF00094F8340000F0080078B93834A07810492D
:100E0000097808430E49087020780E49085C61781B
:100E1000084314F838190B4A505464693046FFF7F8
:100E200083F994F836003F28C7D100BFC1E700001E
:100E3000500000102E000010440000104000001070
:100E4000250000102600001010B5FFF7D8F907485C
:100E50000088401C0549088008460088642803D3A0
:100E60000020088000F004F810BD0000040000100D
:100E700010B503480068FFF70FFC0446204610BD7C
:100E800060000010F8B54FF42071284800F058FBBE
:100E90004021274800F054FB002514E0681C86B26E
:100EA00005EB8500214901EBC00406EB860001EB50
:100EB000C00764202070002084F82500E7601DA092
:100EC0002062681C85B20F2DE8D305EB8500174919
:100ED00001EBC00464202070002084F82500E0604D
:100EE00014A02062002014490860144908801020D2
:100EF000134908800D48134908600120FFF726FBBD
:100F0000114908600020FFF721FB104908606A467C
:100F10000FA10D480068FFF773F96A4611A10B484D
:100F20000068FFF76DF900F027F8F8BD800E00109B
:100F3000001200103F000000580000105600001082
:100F400054000010640000105C00001060000010ED
:100F500075432F4F532D494920546D724C6F636B6D
:100F60000000000075432F4F532D494920546D72E6
:100F70005369676E616C000000B587B003200021E3
:100F800040220A4BCDE90132CDE903104FF6FD7046
:100F90003D23064AFC3200900548FFF7F7FB06AAFE
:100FA00004A13D20FFF718FD07B000BD001100109F
:100FB0003110000075432F4F532D494920546D7255
:100FC0000000000070B50B46032580F82550012B6A
:100FD00005D1154EC5693668354445610CE0856913
:100FE0002DB9114EC56936683544456104E00E4E91
:100FF0008569366835444561057D05F007040B4D6C
:1010000005EBC4010D682DB908600025C5600125F8
:101010008D8006E00A680860C26010618D886D1CD2
:101020008D800025056170BD580000100012001071
:1010300008B500BF00BF6A4600211A480068FFF7E4
:10104000AFFAFFF735F918480068401C16490860E8
:101050000846007800F00708144800EBC8073C6811
:101060001AE0E668104960690968884213D1204691
:1010700000F01EF894F82400022804D10121204633
:10108000FFF7A0FF02E0022084F82500656815B193
:101090002046A168A8473446002CE2D1FFF726FA83
:1010A000C9E7000060000010580000100012001096
:1010B00030B5057D05F007040D4D05EBC4031D6833
:1010C000854205D1C168196039B100250D6104E080
:1010D0000169C268CA6002B11161012580F825501A
:1010E0000025C56005619D886D1E9D8030BD000096
:1010F00000120010411E4FF0E0225161FF21084A0A
:1011000011704FF0E021096941F005014FF0E02234
:1011100011611146096941F0020111617047000037
:1011200023ED00E0704700002DE9F04F05460F4623
:1011300090469946A87A1C490E5C05F10B00805D2B
:1011400011F800B00BEBC60000F0FF0A174850F88A
:101150002A4000202434E0602760207C20EA080038
:10116000207484F81190207C243C00F0080068B9B9
:1011700094F83A000E49097808430D4908700D4863
:10118000805D94F8391008430A498855294620465D
:1011900000F012F8206A20B12046216A00F021F800
:1011A000E5615046BDE8F08F141C000018050010E2
:1011B000250000102600001010B590F8382001F12D
:1011C0000B039B5C90F83940A34301F10B04A3543B
:1011D00023469B5C23B98B7A90F83A40A3438B72E9
:1011E00010BDF0B5024612F8384F95785678383A67
:1011F0000B4618680FE000F10B073F5DB74300F1A5
:101200000B0C0CF8047067463F5D17B9877AAF4343
:1012100087721B1D18680028EDD1F0BD10B51B4A60
:101220001268D061194A126892F8383000F10B0246
:10123000D25C164B1B6893F839301A43134B1B686A
:1012400093F8384000F10B031A55827A0F4B1B6854
:1012500093F83A301A4382720C4A126892F83810A6
:101260000B4A525C094B1B6893F839309A43084B80
:101270005A541A46525C42B9044A126892F83A30FB
:10128000044A12789A43034B1A7010BD34000010C0
:101290002600001025000010014600228A7200205E
:1012A00005E0002301F10B021354421CD0B20828C0
:1012B000F7D370472DE9F0415021114800F040F973
:1012C00000250DE0681C86B20D4800EB051400EB0C
:1012D00006170020207067600AA0E060681C85B2D5
:1012E000042DEFD3064800EB051400202070606049
:1012F00004A0E060024804490860BDE8F0810000F5
:10130000480300103F0000001000001030B50146F7
:101310004A6808682AB9CC68606028B10025456031
:1013200002E0106000B142608B6800259D6230BD14
:1013300070B54FF4F071134800F002F9002411E089
:10134000601C85B204EB44000E4901EBC00305EBC1
:10135000450001EBC006002018705E600AA05861CD
:10136000601C84B2132CEBD304EB4400054901EB61
:10137000C00300201870586003A058610846034954
:10138000086070BD680100103F0000000C000010F4
:1013900000200A4908600A4908700A4908700A4989
:1013A00008700A4908700A4908600A4908600A4931
:1013B00008600A4908600A49087070475000001028
:1013C00021000010220000102F0000102E0000103D
:1013D00008000010300000101C0000101800001061
:1013E0002000001000210A4A1170002004E00021B2
:1013F000084A1154411CC8B20828F8D30021064AF3
:101400001170064A1170064A1160064A1160704751
:1014100025000010260000102300001024000010FA
:101420003C0000103400001070B54FF4F261194810
:1014300000F086F84FF48071174800F081F800241E
:1014400013E0601CC5B204EB440000EBC40011497A
:1014500001EBC00305EB450000EBC50001EBC00646
:101460005E610EA01865601CC4B2152CE9D304EBB4
:10147000440000EBC400074901EBC00300205861A1
:1014800006A0186500200649086002480549086062
:1014900070BD000018060010180500103F00000085
:1014A000400000103800001000B587B00320002174
:1014B00020220A4BCDE90132CDE903104FF6FF702F
:1014C0003F23064A7C3200900548FFF75FF906AAE1
:1014D00004A13F20FFF780FA07B000BD9804001078
:1014E000D117000075432F4F532D49492049646C93
:1014F0006500000000B587B00320002140220A4BA0
:10150000CDE90132CDE903104FF6FE703E23064AC5
:10151000FC3200900548FFF739F906AA04A13E20E5
:10152000FFF75AFA07B000BD980300101118000029
:1015300075432F4F532D49492053746174000000A7
:1015400004E0002200F8012B4A1E91B20029F8D1D4
:101550007047000070B578211148FFF7F1FF0024B3
:101560000EE004EB44000E4901EBC005601C00EBEB
:10157000400001EBC00068600AA06861601C84B292
:10158000042CEED304EB4400054901EBC005002018
:10159000686004A0686108460349086070BD0000E7
:1015A000A80D00103F000000480000102DE9F04198
:1015B00060211048FFF7C4FF00240DE0601C86B2D4
:1015C00004EB44000B4901EBC00506EB460001EBC0
:1015D000C0072F60601C84B2032CEFD304EB4400DF
:1015E000044901EBC0050020286008460249086054
:1015F000BDE8F081200E00104C00001010B5002452
:10160000FEF78EFD044613480078F8B912480078BA
:10161000E0B900F02DF811481149097850F821007F
:10162000104908600E4800780F49097888420DD0AB
:101630000C480068C06B401C0A490968C8630B4825
:101640000068401C09490860FEF781FD2046FEF74E
:101650006BFD10BD210000102200001018050010C5
:10166000240000103C0000102300001008000010AF
:101670000649074A1278885C0649095C034A515CAE
:1016800001EBC001044A117070470000141C0000F7
:101690002500001026000010240000102DE9F84F4E
:1016A00005460F4690469946DDE90AAB00200090BA
:1016B000FEF736FD00903F480468002C75D01C34BE
:1016C00054F8080C3B4908600098FEF72DFD44F8DB
:1016D0001C7CA576002020766076606144F818BCFA
:1016E00044F810AC44F8148C0C9824F80C0C24F832
:1016F0000A9C0020E077E810207705F00700E076EC
:10170000217F01208840A077E17E0120884060771A
:10171000002020606060E060A0602062A0626062E3
:10172000E062206324A060631C3C002606E00021E8
:1017300004F1540040F82610701CC6B2002EF6D0FA
:101740002046FEF7D5FD2046FFF780F8FEF7E8FCBF
:1017500000901A4840F82540194800686061002050
:10176000A0611748006810B11548006884611448EA
:1017700004603834A0781349097808431149087087
:1017800020781149085C6178084314F838190E4A2A
:1017900050540E480078401C0C4908700098FEF721
:1017A000C3FC0020BDE8F88FFFE70098FEF7BCFC03
:1017B0004220F7E7380000103F0000001805001035
:1017C0004000001025000010260000102F0000101F
:1017D000002400BF00BFFEF7A3FC044605480068D4
:1017E000401C044908602046FEF79EFCFFF7F0F815
:1017F000F1E700003000001010B504480068FFF762
:101800002DF9FF20FFF728F810BD0000340000106C
:10181000002400BF02E0C820FFF722FA1948007830
:101820000028F8D0184800686421B0FBF1F0164990
:1018300008600846006828B9002014490870FF2095
:10184000FFF7B0F900BFFEF76BFC044610480068D4
:101850001049086000200E4908602046FEF764FC2D
:101860000C48006808490968B0FBF1F0C0F1640059
:1018700006490870FFF7F3F800F00EF86420FFF750
:10188000EFF9E0E72000001018000010140000102D
:10189000300000101C0000107CB5002514E06946E3
:1018A0002846FFF7E1F8064666B9094850F8254092
:1018B00044B1012C06D0D4E9020100EB8100A06400
:1018C0000198E064681CC5B23F2DE8D97CBD0000DA
:1018D0001805001002F0010343B102F002032BB11E
:1018E00002E0491E002308C00029FAD17047000019
:1018F00010B5FEF715FC044606480078401C054963
:1019000008702046FEF710FCFFF728FAFEF7A6FD48
:1019100010BD00002100001020207B49086000BF9E
:101920007948006800F040000028F9D0032076498B
:101930009C39086001207549C1F80C01744873494D
:1019400084310860AA2071498C31086055200860F4
:1019500001206E4980310860AA206C498C310860F2
:1019600055206A49C1F88C0000BF6848883000687B
:1019700000F080600028F8D0032063499C3908609B
:101980006249C1F88000AA2060498C310860552066
:101990005E49C1F88C0000BF5C488830006800F0E8
:1019A00040700028F8D00520574998390860002079
:1019B0005649C1F8A80154490C31086055485349AB
:1019C000C431086000205149C1F8C8010846D0F868
:1019D0008800C0F30160032860D14B489438006848
:1019E00000F0030030B1012820D0022839D00328AC
:1019F00053D100E000BF454888300068C0F30E00B6
:101A0000401C41004148D0F88800C0F30740401C0A
:101A1000B1FBF0F0404948433B499C390968C9B2E1
:101A2000491CB0FBF1F03D49086036E0374888308A
:101A30000068C0F30E00401C41003448D0F8880014
:101A4000C0F30740401CB1FBF0F0354948432E4934
:101A50009C390968C9B2491CB0FBF1F02F490860F4
:101A60001BE02A4888300068C0F30E00401C41008B
:101A70002648D0F88800C0F30740401CB1FBF0F0C6
:101A80004FF4FA41484320499C390968C9B2491CBE
:101A9000B0FBF1F02149086000BF30E01A489438EB
:101AA000006800F0030030B1012810D0022819D0DE
:101AB000032823D100E000BF13489C380068C0B25F
:101AC000401C1549B1FBF0F01449086016E00E48BF
:101AD0009C380068C0B2401C1149B1FBF0F00F49BE
:101AE00008600BE008489C380068C0B2401C4FF406
:101AF000FA41B1FBF0F00949086000BF00BF43F2B2
:101B00003A00024908607047A0C10F4000C00F4072
:101B10003B000400DE87280400093D00000000109F
:101B2000001BB70002E008C8121F08C1002AFAD142
:101B300070477047002001E001C1121F002AFBD14D
:101B40007047000000B587B09DF818000690FEF7BA
:101B500024FBFEF789FB0320002140220B4BCDE93B
:101B60000132CDE9031004200346084AFC320090FC
:101B70000748FEF70BFE069006AA06A10420FEF712
:101B80002BFFFEF7B9FD002007B000BD6800001074
:101B9000CD0100005374617274205461736B0000B6
:101BA00001000000785634120100140001001800F2
:101BB000E001010001001000140002000500010016
:101BC0003F0001000100050001001800780001003D
:101BD00004000100040018000800010004000100D6
:101BE000010001002000010016000100010040007A
:101BF00001000100010040005800E803010023013A
:101C000001001000010008000A00280080020800FE
:101C10004000321100000100020001000300010039
:101C200002000100040001000200010003000100A5
:101C30000200010005000100020001000300010094
:101C40000200010004000100020001000300010085
:101C50000200010006000100020001000300010073
:101C60000200010004000100020001000300010065
:101C70000200010005000100020001000300010054
:101C80000200010004000100020001000300010045
:101C90000200010007000100020001000300010032
:101CA0000200010004000100020001000300010025
:101CB0000200010005000100020001000300010014
:101CC0000200010004000100020001000300010005
:101CD00002000100060001000200010003000100F3
:101CE00002000100040001000200010003000100E5
:101CF00002000100050001000200010003000100D4
:101D000002000100040001000200010003000100C4
:101D100002000100341D00000000001068000000F7
:101D2000241B00009C1D000068000010D819000052
:101D3000341B000000093D0000000000000000000E
:101D40000000000000000000000000000000000093
:101D50000000000000000000000000000000000083
:101D60000000000000000000000000000000000073
:101D70000000000000000000000000000000000063
:101D80000000000000000000000000000000000053
:0C1D900000000000000000000000000047
:04000005000000C532
:00000001FF
